{
  "contractName": "DistributorRole",
  "abi": [
    {
      "inputs": [],
      "payable": false,
      "stateMutability": "nonpayable",
      "type": "constructor"
    },
    {
      "anonymous": false,
      "inputs": [
        {
          "indexed": true,
          "internalType": "address",
          "name": "account",
          "type": "address"
        }
      ],
      "name": "DistributorAdded",
      "type": "event"
    },
    {
      "anonymous": false,
      "inputs": [
        {
          "indexed": true,
          "internalType": "address",
          "name": "account",
          "type": "address"
        }
      ],
      "name": "DistributorRemoved",
      "type": "event"
    },
    {
      "anonymous": false,
      "inputs": [
        {
          "indexed": true,
          "internalType": "address",
          "name": "oldOwner",
          "type": "address"
        },
        {
          "indexed": true,
          "internalType": "address",
          "name": "newOwner",
          "type": "address"
        }
      ],
      "name": "TransferOwnership",
      "type": "event"
    },
    {
      "constant": true,
      "inputs": [],
      "name": "isOwner",
      "outputs": [
        {
          "internalType": "bool",
          "name": "",
          "type": "bool"
        }
      ],
      "payable": false,
      "stateMutability": "view",
      "type": "function"
    },
    {
      "constant": true,
      "inputs": [],
      "name": "owner",
      "outputs": [
        {
          "internalType": "address",
          "name": "",
          "type": "address"
        }
      ],
      "payable": false,
      "stateMutability": "view",
      "type": "function"
    },
    {
      "constant": false,
      "inputs": [],
      "name": "renounceOwnership",
      "outputs": [],
      "payable": false,
      "stateMutability": "nonpayable",
      "type": "function"
    },
    {
      "constant": false,
      "inputs": [
        {
          "internalType": "address payable",
          "name": "newOwner",
          "type": "address"
        }
      ],
      "name": "transferOwnership",
      "outputs": [],
      "payable": false,
      "stateMutability": "nonpayable",
      "type": "function"
    },
    {
      "constant": true,
      "inputs": [
        {
          "internalType": "address",
          "name": "account",
          "type": "address"
        }
      ],
      "name": "isDistributor",
      "outputs": [
        {
          "internalType": "bool",
          "name": "",
          "type": "bool"
        }
      ],
      "payable": false,
      "stateMutability": "view",
      "type": "function"
    },
    {
      "constant": false,
      "inputs": [
        {
          "internalType": "address",
          "name": "account",
          "type": "address"
        }
      ],
      "name": "addDistributorByOwner",
      "outputs": [],
      "payable": false,
      "stateMutability": "nonpayable",
      "type": "function"
    },
    {
      "constant": false,
      "inputs": [
        {
          "internalType": "address",
          "name": "account",
          "type": "address"
        }
      ],
      "name": "addDistributor",
      "outputs": [],
      "payable": false,
      "stateMutability": "nonpayable",
      "type": "function"
    },
    {
      "constant": false,
      "inputs": [],
      "name": "renounceDistributor",
      "outputs": [],
      "payable": false,
      "stateMutability": "nonpayable",
      "type": "function"
    }
  ],
  "bytecode": "0x608060405234801561001057600080fd5b50336000806101000a81548173ffffffffffffffffffffffffffffffffffffffff021916908373ffffffffffffffffffffffffffffffffffffffff1602179055506000809054906101000a900473ffffffffffffffffffffffffffffffffffffffff1673ffffffffffffffffffffffffffffffffffffffff16600073ffffffffffffffffffffffffffffffffffffffff167f5c486528ec3e3f0ea91181cff8116f02bfa350e03b8b6f12e00765adbb5af85c60405160405180910390a36100dc336100e160201b60201c565b6103c4565b6100f981600161013f60201b6108bf1790919060201c565b8073ffffffffffffffffffffffffffffffffffffffff167fddbf200aa634dc3fb81cfd68583dd1040d1c751d335e1d86b631bde3e977fea860405160405180910390a250565b600073ffffffffffffffffffffffffffffffffffffffff168173ffffffffffffffffffffffffffffffffffffffff1614156101e2576040517f08c379a000000000000000000000000000000000000000000000000000000000815260040180806020018281038252600f8152602001807f496e76616c69642061646472657373000000000000000000000000000000000081525060200191505060405180910390fd5b6101f282826102c360201b60201c565b15610265576040517f08c379a00000000000000000000000000000000000000000000000000000000081526004018080602001828103825260168152602001807f416c72656164792072656769737465726420726f6c650000000000000000000081525060200191505060405180910390fd5b60018260000160008373ffffffffffffffffffffffffffffffffffffffff1673ffffffffffffffffffffffffffffffffffffffff16815260200190815260200160002060006101000a81548160ff0219169083151502179055505050565b60008073ffffffffffffffffffffffffffffffffffffffff168273ffffffffffffffffffffffffffffffffffffffff161415610367576040517f08c379a000000000000000000000000000000000000000000000000000000000815260040180806020018281038252600f8152602001807f496e76616c69642061646472657373000000000000000000000000000000000081525060200191505060405180910390fd5b60008360000160008473ffffffffffffffffffffffffffffffffffffffff1673ffffffffffffffffffffffffffffffffffffffff16815260200190815260200160002060009054906101000a900460ff1690508091505092915050565b610bef806103d36000396000f3fe608060405234801561001057600080fd5b50600436106100885760003560e01c80638da5cb5b1161005b5780638da5cb5b146101295780638f0c86fa146101735780638f32d59b146101cf578063f2fde38b146101f157610088565b80634183eeef1461008d578063644241db146100d1578063715018a6146100db5780637250e224146100e5575b600080fd5b6100cf600480360360208110156100a357600080fd5b81019080803573ffffffffffffffffffffffffffffffffffffffff169060200190929190505050610235565b005b6100d96102bb565b005b6100e36102c6565b005b610127600480360360208110156100fb57600080fd5b81019080803573ffffffffffffffffffffffffffffffffffffffff1690602001909291905050506103ff565b005b610131610486565b604051808273ffffffffffffffffffffffffffffffffffffffff1673ffffffffffffffffffffffffffffffffffffffff16815260200191505060405180910390f35b6101b56004803603602081101561018957600080fd5b81019080803573ffffffffffffffffffffffffffffffffffffffff1690602001909291905050506104af565b604051808215151515815260200191505060405180910390f35b6101d76104cc565b604051808215151515815260200191505060405180910390f35b6102336004803603602081101561020757600080fd5b81019080803573ffffffffffffffffffffffffffffffffffffffff169060200190929190505050610523565b005b61023d6104cc565b6102af576040517f08c379a00000000000000000000000000000000000000000000000000000000081526004018080602001828103825260098152602001807f4e6f74206f776e6572000000000000000000000000000000000000000000000081525060200191505060405180910390fd5b6102b8816105a9565b50565b6102c433610603565b565b6102ce6104cc565b610340576040517f08c379a00000000000000000000000000000000000000000000000000000000081526004018080602001828103825260098152602001807f4e6f74206f776e6572000000000000000000000000000000000000000000000081525060200191505060405180910390fd5b600073ffffffffffffffffffffffffffffffffffffffff166000809054906101000a900473ffffffffffffffffffffffffffffffffffffffff1673ffffffffffffffffffffffffffffffffffffffff167f5c486528ec3e3f0ea91181cff8116f02bfa350e03b8b6f12e00765adbb5af85c60405160405180910390a360008060006101000a81548173ffffffffffffffffffffffffffffffffffffffff021916908373ffffffffffffffffffffffffffffffffffffffff160217905550565b610408336104af565b61047a576040517f08c379a000000000000000000000000000000000000000000000000000000000815260040180806020018281038252600f8152602001807f4e6f74206469737472696275746f72000000000000000000000000000000000081525060200191505060405180910390fd5b610483816105a9565b50565b60008060009054906101000a900473ffffffffffffffffffffffffffffffffffffffff16905090565b60006104c582600161065d90919063ffffffff16565b9050919050565b60008060009054906101000a900473ffffffffffffffffffffffffffffffffffffffff1673ffffffffffffffffffffffffffffffffffffffff163373ffffffffffffffffffffffffffffffffffffffff1614905090565b61052b6104cc565b61059d576040517f08c379a00000000000000000000000000000000000000000000000000000000081526004018080602001828103825260098152602001807f4e6f74206f776e6572000000000000000000000000000000000000000000000081525060200191505060405180910390fd5b6105a68161075e565b50565b6105bd8160016108bf90919063ffffffff16565b8073ffffffffffffffffffffffffffffffffffffffff167fddbf200aa634dc3fb81cfd68583dd1040d1c751d335e1d86b631bde3e977fea860405160405180910390a250565b610617816001610a3d90919063ffffffff16565b8073ffffffffffffffffffffffffffffffffffffffff167f126174f6cf49c81cdb4a9214c6b8f037bef55b4ec31e4fc776cea2a1c8a88d5960405160405180910390a250565b60008073ffffffffffffffffffffffffffffffffffffffff168273ffffffffffffffffffffffffffffffffffffffff161415610701576040517f08c379a000000000000000000000000000000000000000000000000000000000815260040180806020018281038252600f8152602001807f496e76616c69642061646472657373000000000000000000000000000000000081525060200191505060405180910390fd5b60008360000160008473ffffffffffffffffffffffffffffffffffffffff1673ffffffffffffffffffffffffffffffffffffffff16815260200190815260200160002060009054906101000a900460ff1690508091505092915050565b600073ffffffffffffffffffffffffffffffffffffffff168173ffffffffffffffffffffffffffffffffffffffff161415610801576040517f08c379a00000000000000000000000000000000000000000000000000000000081526004018080602001828103825260138152602001807f636865636b2076616c696420616464726573730000000000000000000000000081525060200191505060405180910390fd5b8073ffffffffffffffffffffffffffffffffffffffff166000809054906101000a900473ffffffffffffffffffffffffffffffffffffffff1673ffffffffffffffffffffffffffffffffffffffff167f5c486528ec3e3f0ea91181cff8116f02bfa350e03b8b6f12e00765adbb5af85c60405160405180910390a3806000806101000a81548173ffffffffffffffffffffffffffffffffffffffff021916908373ffffffffffffffffffffffffffffffffffffffff16021790555050565b600073ffffffffffffffffffffffffffffffffffffffff168173ffffffffffffffffffffffffffffffffffffffff161415610962576040517f08c379a000000000000000000000000000000000000000000000000000000000815260040180806020018281038252600f8152602001807f496e76616c69642061646472657373000000000000000000000000000000000081525060200191505060405180910390fd5b61096c828261065d565b156109df576040517f08c379a00000000000000000000000000000000000000000000000000000000081526004018080602001828103825260168152602001807f416c72656164792072656769737465726420726f6c650000000000000000000081525060200191505060405180910390fd5b60018260000160008373ffffffffffffffffffffffffffffffffffffffff1673ffffffffffffffffffffffffffffffffffffffff16815260200190815260200160002060006101000a81548160ff0219169083151502179055505050565b600073ffffffffffffffffffffffffffffffffffffffff168173ffffffffffffffffffffffffffffffffffffffff161415610ae0576040517f08c379a000000000000000000000000000000000000000000000000000000000815260040180806020018281038252600f8152602001807f496e76616c69642061646472657373000000000000000000000000000000000081525060200191505060405180910390fd5b610aea828261065d565b610b5c576040517f08c379a00000000000000000000000000000000000000000000000000000000081526004018080602001828103825260138152602001807f4e6f74207265676973746572656420726f6c650000000000000000000000000081525060200191505060405180910390fd5b60008260000160008373ffffffffffffffffffffffffffffffffffffffff1673ffffffffffffffffffffffffffffffffffffffff16815260200190815260200160002060006101000a81548160ff021916908315150217905550505056fea265627a7a72315820ec48f15e3364322b95f157d5274b79b3d9e4395711918cb3cecb5e863afc3c8c64736f6c63430005100032",
  "source": "pragma solidity ^0.5.0;\n\n// Import contract 'Ownable'\nimport \"../coffeecore/Ownable.sol\";\n\n// Import the library 'Roles'\nimport \"./Roles.sol\";\n\n// Define a contract 'DistributorRole' to manage this role - add, remove, check\ncontract DistributorRole is Ownable {\n  using Roles for Roles.Role;\n\n  // Define 2 events, one for Adding, and other for Removing\n  event DistributorAdded(address indexed account);\n  event DistributorRemoved(address indexed account);\n\n  // Define a struct 'distributors' by inheriting from 'Roles' library, struct Role\n  Roles.Role private distributors;\n\n  // In the constructor make the address that deploys this contract the 1st distributor\n  constructor() public {\n    _addDistributor(msg.sender);\n  }\n\n  // Define a modifier that checks to see if msg.sender has the appropriate role\n  modifier onlyDistributor() {\n    require(isDistributor(msg.sender), \"Not distributor\");\n    _;\n  }\n\n  // Define a function 'isDistributor' to check this role\n  function isDistributor(address account) public view returns (bool) {\n    return distributors.has(account);\n  }\n\n  // Define a function 'addDistributorByOwner' that adds this role by the contract owner\n  function addDistributorByOwner(address account) public onlyOwner {\n    _addDistributor(account);\n  }\n\n  // Define a function 'addDistributor' that adds this role\n  function addDistributor(address account) public onlyDistributor {\n    _addDistributor(account);\n  }\n\n  // Define a function 'renounceDistributor' to renounce this role\n  function renounceDistributor() public {\n    _removeDistributor(msg.sender);\n  }\n\n  // Define an internal function '_addDistributor' to add this role, called by 'addDistributor'\n  function _addDistributor(address account) internal {\n    distributors.add(account);\n    emit DistributorAdded(account);\n  }\n\n  // Define an internal function '_removeDistributor' to remove this role, called by 'removeDistributor'\n  function _removeDistributor(address account) internal {\n    distributors.remove(account);\n    emit DistributorRemoved(account);\n  }\n}",
  "sourcePath": "/home/muzammil/coffeeTrace/dApp/contracts/coffeeaccesscontrol/DistributorRole.sol",
  "compiler": {
    "name": "solc",
    "version": "0.5.16+commit.9c3226ce.Emscripten.clang"
  },
  "schemaVersion": "3.2.3",
  "updatedAt": "2020-08-15T00:49:24.528Z",
  "networkType": "ethereum",
  "devdoc": {
    "methods": {}
  },
  "userdoc": {
    "methods": {
      "isOwner()": {
        "notice": "Check if the calling address is the owner of the contract"
      },
      "owner()": {
        "notice": "Look up the address of the owner"
      },
      "renounceOwnership()": {
        "notice": "Define a function to renounce ownerhip"
      },
      "transferOwnership(address)": {
        "notice": "Define a public function to transfer ownership"
      }
    }
  }
}