{
  "contractName": "FarmerRole",
  "abi": [
    {
      "inputs": [],
      "payable": false,
      "stateMutability": "nonpayable",
      "type": "constructor"
    },
    {
      "anonymous": false,
      "inputs": [
        {
          "indexed": true,
          "internalType": "address",
          "name": "account",
          "type": "address"
        }
      ],
      "name": "FarmerAdded",
      "type": "event"
    },
    {
      "anonymous": false,
      "inputs": [
        {
          "indexed": true,
          "internalType": "address",
          "name": "account",
          "type": "address"
        }
      ],
      "name": "FarmerRemoved",
      "type": "event"
    },
    {
      "anonymous": false,
      "inputs": [
        {
          "indexed": true,
          "internalType": "address",
          "name": "oldOwner",
          "type": "address"
        },
        {
          "indexed": true,
          "internalType": "address",
          "name": "newOwner",
          "type": "address"
        }
      ],
      "name": "TransferOwnership",
      "type": "event"
    },
    {
      "constant": true,
      "inputs": [],
      "name": "isOwner",
      "outputs": [
        {
          "internalType": "bool",
          "name": "",
          "type": "bool"
        }
      ],
      "payable": false,
      "stateMutability": "view",
      "type": "function"
    },
    {
      "constant": true,
      "inputs": [],
      "name": "owner",
      "outputs": [
        {
          "internalType": "address",
          "name": "",
          "type": "address"
        }
      ],
      "payable": false,
      "stateMutability": "view",
      "type": "function"
    },
    {
      "constant": false,
      "inputs": [],
      "name": "renounceOwnership",
      "outputs": [],
      "payable": false,
      "stateMutability": "nonpayable",
      "type": "function"
    },
    {
      "constant": false,
      "inputs": [
        {
          "internalType": "address payable",
          "name": "newOwner",
          "type": "address"
        }
      ],
      "name": "transferOwnership",
      "outputs": [],
      "payable": false,
      "stateMutability": "nonpayable",
      "type": "function"
    },
    {
      "constant": true,
      "inputs": [
        {
          "internalType": "address",
          "name": "account",
          "type": "address"
        }
      ],
      "name": "isFarmer",
      "outputs": [
        {
          "internalType": "bool",
          "name": "",
          "type": "bool"
        }
      ],
      "payable": false,
      "stateMutability": "view",
      "type": "function"
    },
    {
      "constant": false,
      "inputs": [
        {
          "internalType": "address",
          "name": "account",
          "type": "address"
        }
      ],
      "name": "addFarmerByOwner",
      "outputs": [],
      "payable": false,
      "stateMutability": "nonpayable",
      "type": "function"
    },
    {
      "constant": false,
      "inputs": [
        {
          "internalType": "address",
          "name": "account",
          "type": "address"
        }
      ],
      "name": "addFarmer",
      "outputs": [],
      "payable": false,
      "stateMutability": "nonpayable",
      "type": "function"
    },
    {
      "constant": false,
      "inputs": [],
      "name": "renounceFarmer",
      "outputs": [],
      "payable": false,
      "stateMutability": "nonpayable",
      "type": "function"
    }
  ],
  "bytecode": "0x608060405234801561001057600080fd5b50336000806101000a81548173ffffffffffffffffffffffffffffffffffffffff021916908373ffffffffffffffffffffffffffffffffffffffff1602179055506000809054906101000a900473ffffffffffffffffffffffffffffffffffffffff1673ffffffffffffffffffffffffffffffffffffffff16600073ffffffffffffffffffffffffffffffffffffffff167f5c486528ec3e3f0ea91181cff8116f02bfa350e03b8b6f12e00765adbb5af85c60405160405180910390a36100dc336100e160201b60201c565b6103c4565b6100f981600161013f60201b6108bf1790919060201c565b8073ffffffffffffffffffffffffffffffffffffffff167f2e0ded4123377a3c2bc9a26f1717655a129e2f20752924d42e730ec89c83dbd060405160405180910390a250565b600073ffffffffffffffffffffffffffffffffffffffff168173ffffffffffffffffffffffffffffffffffffffff1614156101e2576040517f08c379a000000000000000000000000000000000000000000000000000000000815260040180806020018281038252600f8152602001807f496e76616c69642061646472657373000000000000000000000000000000000081525060200191505060405180910390fd5b6101f282826102c360201b60201c565b15610265576040517f08c379a00000000000000000000000000000000000000000000000000000000081526004018080602001828103825260168152602001807f416c72656164792072656769737465726420726f6c650000000000000000000081525060200191505060405180910390fd5b60018260000160008373ffffffffffffffffffffffffffffffffffffffff1673ffffffffffffffffffffffffffffffffffffffff16815260200190815260200160002060006101000a81548160ff0219169083151502179055505050565b60008073ffffffffffffffffffffffffffffffffffffffff168273ffffffffffffffffffffffffffffffffffffffff161415610367576040517f08c379a000000000000000000000000000000000000000000000000000000000815260040180806020018281038252600f8152602001807f496e76616c69642061646472657373000000000000000000000000000000000081525060200191505060405180910390fd5b60008360000160008473ffffffffffffffffffffffffffffffffffffffff1673ffffffffffffffffffffffffffffffffffffffff16815260200190815260200160002060009054906101000a900460ff1690508091505092915050565b610bef806103d36000396000f3fe608060405234801561001057600080fd5b50600436106100885760003560e01c80638f32d59b1161005b5780638f32d59b1461012f578063b942906914610151578063d155a0e2146101ad578063f2fde38b146101f157610088565b8063715018a61461008d57806380c3f96d1461009757806380fc0ce4146100db5780638da5cb5b146100e5575b600080fd5b610095610235565b005b6100d9600480360360208110156100ad57600080fd5b81019080803573ffffffffffffffffffffffffffffffffffffffff16906020019092919050505061036e565b005b6100e36103f5565b005b6100ed610400565b604051808273ffffffffffffffffffffffffffffffffffffffff1673ffffffffffffffffffffffffffffffffffffffff16815260200191505060405180910390f35b610137610429565b604051808215151515815260200191505060405180910390f35b6101936004803603602081101561016757600080fd5b81019080803573ffffffffffffffffffffffffffffffffffffffff169060200190929190505050610480565b604051808215151515815260200191505060405180910390f35b6101ef600480360360208110156101c357600080fd5b81019080803573ffffffffffffffffffffffffffffffffffffffff16906020019092919050505061049d565b005b6102336004803603602081101561020757600080fd5b81019080803573ffffffffffffffffffffffffffffffffffffffff169060200190929190505050610523565b005b61023d610429565b6102af576040517f08c379a00000000000000000000000000000000000000000000000000000000081526004018080602001828103825260098152602001807f4e6f74206f776e6572000000000000000000000000000000000000000000000081525060200191505060405180910390fd5b600073ffffffffffffffffffffffffffffffffffffffff166000809054906101000a900473ffffffffffffffffffffffffffffffffffffffff1673ffffffffffffffffffffffffffffffffffffffff167f5c486528ec3e3f0ea91181cff8116f02bfa350e03b8b6f12e00765adbb5af85c60405160405180910390a360008060006101000a81548173ffffffffffffffffffffffffffffffffffffffff021916908373ffffffffffffffffffffffffffffffffffffffff160217905550565b61037733610480565b6103e9576040517f08c379a000000000000000000000000000000000000000000000000000000000815260040180806020018281038252600a8152602001807f4e6f74206661726d65720000000000000000000000000000000000000000000081525060200191505060405180910390fd5b6103f2816105a9565b50565b6103fe33610603565b565b60008060009054906101000a900473ffffffffffffffffffffffffffffffffffffffff16905090565b60008060009054906101000a900473ffffffffffffffffffffffffffffffffffffffff1673ffffffffffffffffffffffffffffffffffffffff163373ffffffffffffffffffffffffffffffffffffffff1614905090565b600061049682600161065d90919063ffffffff16565b9050919050565b6104a5610429565b610517576040517f08c379a00000000000000000000000000000000000000000000000000000000081526004018080602001828103825260098152602001807f4e6f74206f776e6572000000000000000000000000000000000000000000000081525060200191505060405180910390fd5b610520816105a9565b50565b61052b610429565b61059d576040517f08c379a00000000000000000000000000000000000000000000000000000000081526004018080602001828103825260098152602001807f4e6f74206f776e6572000000000000000000000000000000000000000000000081525060200191505060405180910390fd5b6105a68161075e565b50565b6105bd8160016108bf90919063ffffffff16565b8073ffffffffffffffffffffffffffffffffffffffff167f2e0ded4123377a3c2bc9a26f1717655a129e2f20752924d42e730ec89c83dbd060405160405180910390a250565b610617816001610a3d90919063ffffffff16565b8073ffffffffffffffffffffffffffffffffffffffff167fa5e0f060af304ab17dd418c7927e3da3ae7868189bf387aee09ab179ccc572f260405160405180910390a250565b60008073ffffffffffffffffffffffffffffffffffffffff168273ffffffffffffffffffffffffffffffffffffffff161415610701576040517f08c379a000000000000000000000000000000000000000000000000000000000815260040180806020018281038252600f8152602001807f496e76616c69642061646472657373000000000000000000000000000000000081525060200191505060405180910390fd5b60008360000160008473ffffffffffffffffffffffffffffffffffffffff1673ffffffffffffffffffffffffffffffffffffffff16815260200190815260200160002060009054906101000a900460ff1690508091505092915050565b600073ffffffffffffffffffffffffffffffffffffffff168173ffffffffffffffffffffffffffffffffffffffff161415610801576040517f08c379a00000000000000000000000000000000000000000000000000000000081526004018080602001828103825260138152602001807f636865636b2076616c696420616464726573730000000000000000000000000081525060200191505060405180910390fd5b8073ffffffffffffffffffffffffffffffffffffffff166000809054906101000a900473ffffffffffffffffffffffffffffffffffffffff1673ffffffffffffffffffffffffffffffffffffffff167f5c486528ec3e3f0ea91181cff8116f02bfa350e03b8b6f12e00765adbb5af85c60405160405180910390a3806000806101000a81548173ffffffffffffffffffffffffffffffffffffffff021916908373ffffffffffffffffffffffffffffffffffffffff16021790555050565b600073ffffffffffffffffffffffffffffffffffffffff168173ffffffffffffffffffffffffffffffffffffffff161415610962576040517f08c379a000000000000000000000000000000000000000000000000000000000815260040180806020018281038252600f8152602001807f496e76616c69642061646472657373000000000000000000000000000000000081525060200191505060405180910390fd5b61096c828261065d565b156109df576040517f08c379a00000000000000000000000000000000000000000000000000000000081526004018080602001828103825260168152602001807f416c72656164792072656769737465726420726f6c650000000000000000000081525060200191505060405180910390fd5b60018260000160008373ffffffffffffffffffffffffffffffffffffffff1673ffffffffffffffffffffffffffffffffffffffff16815260200190815260200160002060006101000a81548160ff0219169083151502179055505050565b600073ffffffffffffffffffffffffffffffffffffffff168173ffffffffffffffffffffffffffffffffffffffff161415610ae0576040517f08c379a000000000000000000000000000000000000000000000000000000000815260040180806020018281038252600f8152602001807f496e76616c69642061646472657373000000000000000000000000000000000081525060200191505060405180910390fd5b610aea828261065d565b610b5c576040517f08c379a00000000000000000000000000000000000000000000000000000000081526004018080602001828103825260138152602001807f4e6f74207265676973746572656420726f6c650000000000000000000000000081525060200191505060405180910390fd5b60008260000160008373ffffffffffffffffffffffffffffffffffffffff1673ffffffffffffffffffffffffffffffffffffffff16815260200190815260200160002060006101000a81548160ff021916908315150217905550505056fea265627a7a72315820328dc1509b56248be208e6fd30b7c75123d044052b4a55b999e9603e795bddfb64736f6c63430005100032",
  "source": "pragma solidity ^0.5.0;\n\n// Import contract 'Ownable'\nimport \"../coffeecore/Ownable.sol\";\n\n// Import the library 'Roles'\nimport \"./Roles.sol\";\n\n// Define a contract 'FarmerRole' to manage this role - add, remove, check\ncontract FarmerRole is Ownable {\n  using Roles for Roles.Role;\n\n  // Define 2 events, one for Adding, and other for Removing\n  event FarmerAdded(address indexed account);\n  event FarmerRemoved(address indexed account);\n\n  // Define a struct 'farmers' by inheriting from 'Roles' library, struct Role\n  Roles.Role private farmers;\n\n  // In the constructor make the address that deploys this contract the 1st farmer\n  constructor() public {\n    _addFarmer(msg.sender);\n  }\n\n  // Define a modifier that checks to see if msg.sender has the appropriate role\n  modifier onlyFarmer() {\n    require(isFarmer(msg.sender), \"Not farmer\");\n    _;\n  }\n\n  // Define a function 'isFarmer' to check this role\n  function isFarmer(address account) public view returns (bool) {\n    return farmers.has(account);\n  }\n\n  // Define a function 'addFarmerByOwner' that adds this role by the contract owner\n  function addFarmerByOwner(address account) public onlyOwner {\n    _addFarmer(account);\n  }\n\n  // Define a function 'addFarmer' that adds this role\n  function addFarmer(address account) public onlyFarmer {\n    _addFarmer(account);\n  }\n\n  // Define a function 'renounceFarmer' to renounce this role\n  function renounceFarmer() public {\n    _removeFarmer(msg.sender);\n  }\n\n  // Define an internal function '_addFarmer' to add this role, called by 'addFarmer'\n  function _addFarmer(address account) internal {\n    farmers.add(account);\n    emit FarmerAdded(account);\n  }\n\n  // Define an internal function '_removeFarmer' to remove this role, called by 'removeFarmer'\n  function _removeFarmer(address account) internal {\n    farmers.remove(account);\n    emit FarmerRemoved(account);\n  }\n}",
  "sourcePath": "/home/muzammil/coffeeTrace/dApp/contracts/coffeeaccesscontrol/FarmerRole.sol",
  "compiler": {
    "name": "solc",
    "version": "0.5.16+commit.9c3226ce.Emscripten.clang"
  },
  "schemaVersion": "3.2.3",
  "updatedAt": "2020-08-15T00:49:24.524Z",
  "networkType": "ethereum",
  "devdoc": {
    "methods": {}
  },
  "userdoc": {
    "methods": {
      "isOwner()": {
        "notice": "Check if the calling address is the owner of the contract"
      },
      "owner()": {
        "notice": "Look up the address of the owner"
      },
      "renounceOwnership()": {
        "notice": "Define a function to renounce ownerhip"
      },
      "transferOwnership(address)": {
        "notice": "Define a public function to transfer ownership"
      }
    }
  }
}